:020000040800F2
:100000001007002091010008411900083919000863
:100010003D190008450400086119000800000000AF
:100020000000000000000000000000004919000866
:100030004904000800000000451900084D19000897
:10004000AB010008AB010008AB010008AB010008E0
:10005000AB010008AB0100084D040008AB0100082B
:10006000AB010008AB010008AB010008AB010008C0
:10007000AB010008AB010008AB010008AB010008B0
:10008000AB010008AB010008AB010008AB010008A0
:10009000AB010008AB010008AB010008AB01000890
:1000A000AB010008AB010008AB010008AB01000880
:1000B00055190008AB010008AB010008AB010008AE
:1000C000AB010008AB010008AB010008AB01000860
:1000D000AB010008AB010008AB010008AB01000850
:1000E000AB010008AB010008AB010008AB01000840
:1000F000AB01000800F002F800F03AF80AA090E81E
:10010000000C82448344AAF10107DA4501D100F0D2
:100110002FF8AFF2090EBAE80F0013F0010F18BF65
:10012000FB1A43F001031847441A0000641A000048
:10013000103A24BF78C878C1FAD8520724BF30C813
:1001400030C144BF04680C607047000000230024E5
:1001500000250026103A28BF78C1FBD8520728BFD7
:1001600030C148BF0B6070471FB51FBD10B510BD33
:1001700000F0D0F81146FFF7F7FF01F0F3FB00F0B5
:10018000EEF803B4FFF7F2FF03BC00F0F5F800004F
:100190000948804709480047FEE7FEE7FEE7FEE71B
:1001A000FEE7FEE7FEE7FEE7FEE7FEE70448054957
:1001B000054A064B7047000051190008F500000879
:1001C0001001002010070020100300201003002061
:1001D00053EA020C00F069802DE9F04B4FF0000665
:1001E000002B1FBFB3FA83F503FA05F424FA05F6D2
:1001F0005E4012BF1643B2FA82F502FA05F4C5F169
:1002000020051EBF22FA05FC44EA0C04203556EAFC
:10021000044C4FEA144418BF641C4FF000084FF020
:100220000009904271EB030C39D3002919BFB1FAD0
:1002300081F701FA07F6B0FA80F700FA07F6C7F17E
:1002400020071EBF20FA07FC46EA0C062037B6FB43
:10025000F4FCA7EB0507103F07F01F0BCBF12006BE
:100260002CFA06F60CFA0BFB44BFB3460026202FEF
:10027000A4BF5E464FF0000B5BEA060C08BF4FF0D0
:10028000010B19EB0B0948EB0608ABFB027C06FBE4
:1002900002CC0BFB03CCC01B71EB0C01C1E70B467E
:1002A000024641464846BDE8F08B13B5084318BFE7
:1002B0004FF0FF300146AFF30080BDE81C407047AF
:1002C0004FF0000200B5134694469646203922BFEF
:1002D000A0E80C50A0E80C50B1F12001BFF4F7AF3A
:1002E000090728BFA0E80C5048BF0CC05DF804EB1C
:1002F000890028BF40F8042B08BF704748BF20F88A
:10030000022B11F0804F18BF00F8012B7047704787
:1003100070477047754600F02BF8AE4605006946F9
:10032000534620F00700854618B020B5FFF73EFF82
:10033000BDE820404FF000064FF000074FF00008E6
:100340004FF0000BAC46ACE8C009ACE8C009ACE823
:10035000C009ACE8C00921F007018D46704710B50F
:100360000446AFF300802046BDE81040FFF709BF08
:10037000004870471000002001491820ABBEFEE77E
:100380002600020070470000B0B582B0044600208D
:10039000019021680A68520651D4886840F0010033
:1003A000886040F20800C2F2000000684DF68361E8
:1003B000C4F21B31A0FB0101880C00EB400001904E
:1003C0000198A0B1019801380190019878B1019885
:1003D00001380190019850B10198013801900198BD
:1003E00028B101980138019001980028EAD100F065
:1003F000BBFB2168096849061CD4054603E000BF21
:10040000006840061AD400F0AFFB411B20680329A6
:10041000F6D301684906F3D4E06C40F01000E064C4
:10042000206D40F001002065002084F84800012084
:1004300002B0B0BD002002B0B0BD00BF002002B0CD
:10044000B0BD0000FEE7000070470000012000F092
:10045000A7BA000010B581B00022009290F84820A1
:10046000012A03D10221084601B010BD4B680122C8
:10047000062B80F8482015D8D0F800E003EB830362
:100480005A1F1F23DEF840C003FA02F40B682CEA5F
:10049000040403FA02F22243CEF84020092B48D884
:1004A0007FE000BF0C2B15D8D0F800E003EB8303EE
:1004B000A3F123041F23DEF83CC003FA04F20B6807
:1004C0002CEA020203FA04F42243CEF83C20092B62
:1004D0002FD866E0122B15D8D0F800E003EB830389
:1004E000A3F141041F23DEF838C003FA04F20B68BD
:1004F0002CEA020203FA04F42243CEF83820092B36
:1005000017D84EE0D0F800E0182B03EB830337D860
:10051000A3F15F041F23DEF834C003FA04F20B6872
:100520002CEA020203FA04F42243CEF83420092B09
:1005300037D9132B0ED803EB4304DEF810C01E3C52
:1005400007228968A2402CEA0202A1401143CEF89A
:10055000101033E01A2B0FD803EB4304DEF80CC065
:100560003C3C07228968A2402CEA0202A1401143C8
:10057000CEF80C1022E000BF00BF0B681EE000BFE9
:10058000A3F17D041F23DEF830C003FA04F20B68E8
:100590002CEA020203FA04F42243CEF83020092B9D
:1005A000C7D8DEF814C003EB430407228968A240D1
:1005B0002CEA0202A1401143CEF8141023F00101ED
:1005C000102934D142F20471C4F201010A68120206
:1005D0002DD40A68102B42F400020A6027D140F2A1
:1005E0000801C2F2000109684DF68362C4F21B32B1
:1005F000A1FB0212910C01EB8101490000910099CD
:10060000A9B100BF009901390091009979B1009911
:1006100001390091009951B1009901390091009977
:1006200029B100990139009100990029EAD10021EE
:1006300080F84810084601B010BD00000068806DC9
:1006400070470000F0B581B0002868D00646044627
:1006500056F84C0F00284BD03068C0065FD4E06CD1
:1006600041F202118843023042F2047CE064C4F299
:10067000010CDCF80010626821F44031E368606925
:100680001143256ACCF80010184394F83C3094F8D4
:1006900024702843616B40EA4320102940EA470058
:1006A00002D0A36B1943084321680B685B0649D449
:1006B000D4F808C02569D4E906E3012D43EA0C0308
:1006C00043F4807208BF1346B5F5807F94F82C5030
:1006D00008BF1346012D40EA0E002BD117B3E26C80
:1006E00042F02002E264226D42F00102226521E024
:1006F0000020206584F8480043F62000C4F2020080
:10070000016841F001010160006800F00100009003
:100710000098204600F056F83068C0069FD50120AA
:1007200001B0F0BD226B4EF60007CFF6FF7707EB66
:10073000423213434A6841F2FF67CFF6FC473A4022
:100740001A434A608A684FF28D13CCF2FF031A40B5
:1007500002438A602269B2F5807F01D0012A0BD161
:100760000A6BA36A0027CFF6F07722F0F87207EB46
:1007700003531A4303E000BF0A6B22F0F8720A63C6
:1007800089684FF6FE72CBF680721140814209D122
:1007900000202065E16C21F0030141F0010131608E
:1007A00001B0F0BDE06C40F0100020F00200E06409
:1007B00054F8501F0120264641F00101316001B07C
:1007C000F0BD000080B586B042F200410068C4F27E
:1007D0000101002288420592049201D006B080BD3A
:1007E00043F61C00C4F20200436843F40073436004
:1007F000436803F400730093009B036843F0010314
:100800000360006800F00100009000980220019051
:100810000320CDE9020201F55C4001A900F0CCF80B
:1008200006B080BD70B5044600680D46826852056A
:1008300044BF80685FEAC05038D400F095F9216861
:100840000A68920749D40646681C3CD0DDB908689E
:10085000800721D5086880073FD4086880071BD52A
:100860000868800739D40868800715D508688007AC
:1008700033D4086880070FD508688007E7D52CE0D7
:100880000868800729D400F06FF9801B2168A8420E
:10089000F6D908688007F3D4E06C40F00400E06407
:1008A000002084F84800032070BD00BFE06C40F0D9
:1008B0002000E064002084F84800012070BD00BFE3
:1008C0000868800709D40868800706D4086880078C
:1008D0005CBF08685FEA8070F2D5A069002804BF99
:1008E0006FF012000860E06C40F40070E06488680B
:1008F00010F0405F02D194F8240008B1002070BDD0
:10090000086B10F0F87F02D088684005F6D4E06CE0
:1009100020F48070E064E06CC004EFD4E06C40F040
:100920000100E064002070BD10B5044690F8480056
:10093000012804BF022010BD012084F84800204691
:10094000FFF722FD00B110BD2168E06C40F201729A
:10095000904300F58070E0644868400504D5E06C81
:10096000012262F30D30E064E26C0020D2044FF00B
:10097000000244BF226D22F0060222656FF02202BF
:1009800084F848000A608A6812F0405F18BF10BD02
:10099000886840F080408860002010BD70470000EB
:1009A00040F21441C4F201010A68024214BF086017
:1009B0007047FFF7F3BF00002DE9F04F82B00D68DC
:1009C000002D00F0C78000F13E4741F2000407F11E
:1009D000FF77C4F20204052240F2004E4FEAB72628
:1009E000A04208BF0422C4F2010E042E38BF4FEA11
:1009F000B722002401274FF0000C0026009209E0E6
:100A00000D68013635FA06F20CF1040C04F102040B
:100A100000F0A08007FA06FB15EA0B08F0D0D1F829
:100A200004A003230AF003056A1EA340012A6FEA0B
:100A300003090FD88268CB6802EA0902A3401A436F
:100A400082604268CAF3001322EA0B02B3401A43E1
:100A5000426003E0032D01D103251FE0C2688B68CB
:100A600002EA0902A3401A43022DC26016D16FF0B8
:100A7000030202EA560202440CF01C050F23D2F8CE
:100A800020A003FA05FB0B692AEA0B0AAB4043EAF4
:100A90000A031362D1F804A00AF00305026805FAFC
:100AA00004F302EA09021A431AF4403F0260A7D095
:100AB00043F62003C4F202031A684FF6084A42F0D4
:100AC00001021A601A68CFF6FF7A02F00102019261
:100AD000019A26F00302724452F80A900CF00C05B9
:100AE0000F23009FAB4029EA030307FA05F52B43C8
:100AF00042F80A30DEF808904B6849EA0805DA0245
:100B000058BF29EA080540F20C49CEF80850C4F253
:100B10000109D9F800209F0242EA080558BF22EADD
:100B20000805C9F80050DEF804209F0342EA0805D2
:100B300058BF22EA0805CEF80450DEF8002001274D
:100B400042EA0805DB0358BF22EA0805CEF8005048
:100B500056E700BF02B0BDE8F08F0000002A08BFD2
:100B6000090481617047000040F20810C2F20000E1
:100B70000068704740F2000040F20811C2F2000025
:100B8000C2F2000140680A68104408607047000023
:100B900080B5032000F098F80F2000F009F8002835
:100BA0001CBF012080BD00F029F8002080BD00009E
:100BB00070B540F20006C2F200067168E1B1044669
:100BC00040F20800C2F200004FF47A720068B2FBF3
:100BD000F1F1B0FBF1F000F059FC0F2C4FF00105E2
:100BE00008D838B94FF0FF3021460022002500F028
:100BF0003FF83460284670BD012070BD83B043F6D5
:100C00002400C4F20200016841F000410160016863
:100C100001F000410291029950F8041C41F00101D9
:100C200040F8041C50F8041C01F0010101910199E5
:100C3000016841F080510160006800F08050009030
:100C4000009803B070470000002848BF7047C1B249
:100C500000F01F00012202FA00F04EF20012CEF264
:100C6000000242EAD10121F0030108607047000050
:100C700010B54EF60C5CCEF2000CDCF80030C3F37D
:100C8000022E8EF00704042C28BF0424BEF10303B7
:100C90004FF0FF3E0EFA04F438BF0023A143994001
:100CA0000EFA03F39A43114300F00F0200F1604380
:100CB0000901043A03F564436244002848BF02F185
:100CC0000C03197010BD00004EF60C51CEF200015D
:100CD0000A684FF6FF031A4060F30A2242F0806070
:100CE00040F0FD70086070472DE9F041002800F0E9
:100CF000A18043F60807C4F202070446D7F8F803B8
:100D00000D4600F00100884215D2012D05D1D7F81B
:100D1000F80340F00400C7F8F803D7F8F80320F010
:100D200001002843C7F8F803D7F8F80300F00100E2
:100D3000A84240F07F802068810705D53968A26805
:100D400021F0F00111433960C00737D1D7F8F8031B
:100D500000F00100A84209D9D7F8F80320F00100FB
:100D6000C7F8F803D7F8F803C00763D12068410734
:100D700005D53968E26821F4E06111433960000764
:100D800006D53868216920F4605040EAC100386017
:100D90003968C1F3810242F20040C0F2F400DFE89A
:100DA00002F003A41D2300BF57F8040C4FF4803158
:100DB000C0F3423001FA00F097E000BF60680128FC
:100DC00024D003282AD0022830D157F8081C8903E0
:100DD0005CBF0120BDE8F08130E000BF43F200605D
:100DE000C0F26E1081E000BF41F66033C1F3834270
:100DF000C0F600039B5C3A68C1F38151D20301F154
:100E0000010269D45843B0FBF2F06EE057F8081CB9
:100E100089075CBF0120BDE8F0810FE057F8081C8E
:100E200089015CBF0120BDE8F08107E057F8081C8C
:100E3000890503D40120BDE8F08100BF396821F0A5
:100E4000030108433860FFF78FFE616806460329F7
:100E500041F288382BD0022937D0012910D100BFA8
:100E6000386800F00C0004283FF470AFFFF77CFEF8
:100E7000801B40454FF00300F2D9BDE8F08100BF70
:100E8000386810F00C0F3FF461AFFFF76DFE801B68
:100E900040454FF0030088BFBDE8F081F0E700BF98
:100EA000FFF762FE801B40454FF00300E5D838682D
:100EB00000F00C000C28F3D148E700BFFFF754FE08
:100EC000801B40454FF00300D7D8386800F00C0075
:100ED0000828F3D13AE700BF43F20060C0F26E1079
:100EE000A3FB00010023FFF773F9396841F6503284
:100EF000C1F30311C0F60002515C40F2080220FA6F
:100F000001F140F20000C2F200000068C2F20002EB
:100F10001160BDE8F041FFF74BBE00002DE9F04342
:100F200083B0002800F0AE8243F600060446C4F207
:100F30000206B068B168227800F00C09D00701F40D
:100F4000803710D0B9F1080F06D0B9F10C0F40F07E
:100F5000E580002F00F0E2803068800303D56068F0
:100F6000002800F08F82207880072FD5B9F1040F78
:100F70001ED0B9F10C0F08BF002F19D0E06800286F
:100F800000F04C810020C4F2472001210160FFF7EE
:100F9000EBFD05463068800711D4FFF7E5FD401BE7
:100FA00002284FF00300F5D903B0BDE8F08300BF7D
:100FB0003068800703D5E068012840F063827068DC
:100FC000216920F4F85040EA012070602078C006C2
:100FD00026D4207800073DD42078400750D4656A95
:100FE000CDB1B9F10C0F40F0D580012D00F04A824F
:100FF000B068A16A00F480328A4240F04382E16A1C
:1010000000F470128A4240F03D82216B00F44000EF
:10101000884240F03782002003B0BDE8F08300BF73
:10102000B9F1000F66D0A069002800F09F80002071
:10103000C4F2472001210162FFF796FD054600BF7B
:101040003068800500F1C880FFF78EFD401B022844
:10105000F6D927E16069002872D00020C4F2472049
:101060000121C0F88016FFF77FFD0546706B8007F1
:10107000B2D4FFF779FD401B0228F7D912E100BF77
:10108000706A10F0805808D1706A40F08050706229
:10109000706A00F080500090009847F20007C4F298
:1010A00000073868C00513D4386840F48070386091
:1010B000FFF75AFD054600BF3868C00508D4FFF7A2
:1010C00053FD401B64284FF00300F5D96CE700BFC7
:1010D000A068002800F0B680052800F0CD80012827
:1010E00000F0CE80706B20F480707063706B20F421
:1010F0008060C8E03068800503D5A069002800F052
:10110000C181206A716801F46041884272D9B16876
:1011100011F0F00F00F0048100215BE1606800280D
:1011200000F0CE80052800F0E380012800F0E48084
:10113000306820F480303060306820F48020DEE0B9
:101140000020C4F247200021C0F88016FFF70CFDF4
:10115000054600BF706B80077FF53EAFFFF704FDCB
:10116000401B02284FF00300F4D91DE70020C4F211
:10117000472000210162FFF7F7FC05463068800533
:101180007FF527AFFFF7F0FC401B02284FF003006C
:10119000F4D909E70027C4F2472700203866FFF793
:1011A000E3FC022D05460BD13068800140F1CE8072
:1011B000FFF7DAFC401B02284FF00300F4D9F3E6F6
:1011C000306880017FF527AFFFF7CEFC401B022877
:1011D0004FF00300F4D9E7E67068D4E9072120F462
:1011E000604008437060706820F07F4040EA026011
:1011F0007060EEE6716821F46041014371607168CE
:10120000E26921F07F4141EA02617160B16811F049
:10121000F00F00F0B780002108E100BF0020C4F209
:10122000472000210160FFF79FFC054630688007DA
:101230007FF5CCAEFFF798FC401B02284FF003006F
:10124000F4D9B1E6706B20F480707063706B20F499
:1012500080607063FFF788FC054641F2883700BF65
:10126000706B800522D5FFF77FFC401BB8424FF022
:101270000300F5D998E600BF706B40F4806070639E
:10128000706B40F480707063FFF76EFC054641F2AE
:10129000883700BF706B800508D4FFF765FC401BE2
:1012A000B842F7D9032003B0BDE8F083B8F1000FCE
:1012B0007FF495AE706A20F0805070628FE600BFB8
:1012C000306820F480303060306820F48020306056
:1012D000FFF74AFC054600BF306880037FF543AE48
:1012E000FFF742FC401B64284FF00300F4D95BE693
:1012F000306840F480203060306840F480303060E6
:10130000FFF732FC054600BF306880033FF52BAE87
:10131000FFF72AFC401B64284FF00300F4D943E692
:10132000716AC90047F20001C4F2000140D4726A38
:1013300042F080527262726A02F080520192019A07
:101340000A68716A21F08051716232E0B06804F17C
:1013500028030ECB20F47D00084310431843B060EF
:1013600001203866FFF700FC044600BF30688001AA
:101370003FF551AEFFF7F8FB001B02284FF00300CA
:10138000F4D911E6716AC90047F20001C4F2000104
:101390003AD4726A42F080527262726A02F08052EB
:1013A0000292029A0A68716A21F0805171622CE0FF
:1013B0000A68B0F5404F4FF000010BD102F4C05263
:1013C000B2F5C05F06D1D6F8001441F00401C6F8AA
:1013D00000140121D6F8002422F001020A44C6F8C4
:1013E0000024D6F8002402F001028A424AD1716832
:1013F00021F46041014371607168E26921F07F412D
:1014000041EA026171601EE00A68B0F5404F4FF09A
:1014100000010BD102F4C052B2F5C05F06D1D6F87C
:10142000001441F00401C6F800140121D6F800248C
:1014300022F001020A44C6F80024D6F8002402F083
:1014400001028A421ED1B16841F65032C1F3031144
:10145000C0F60002400B515C4FF4803202FA00F0FB
:1014600020FA01F140F20000C2F2000040F208024E
:101470000068C2F200021160FFF79AFB00287FF4B7
:1014800093ADA6E5012003B0BDE8F083411E002026
:10149000B0EB116F1CBF012070474EF21002CEF26C
:1014A000000251604EF62351CEF20001F0230B7082
:1014B000072190601160704710B590F83820012A1C
:1014C0004FF0020233D080F839200268D2F804E0ED
:1014D000D2F808C00C682EF07003234340F2FF746A
:1014E000C4F20004A24253600ADCB2F1804F13D070
:1014F00040F20043C4F200039A420DD011E000BF55
:1015000040F60003C4F201039A4205D040F60003FE
:10151000C4F200039A4204D149682CF080031943B5
:1015200091600121002280F8391080F8382010469F
:1015300010BD0000002804BF0120704710B504460C
:1015400090F8390028B9002084F83800204600F0CF
:1015500061F8022084F8390020680168B0F1804FFA
:101560000BD040F60002C4F20002904205D040F2D7
:101570000042C4F20002904203D1A26821F070013F
:10158000114340F2FF72C4F20102904210DCB0F14C
:10159000804F1FD040F20042C4F20002904219D0A6
:1015A00040F60002C4F20002904213D016E000BFE1
:1015B00040F60002C4F2010290420BD041F2000258
:1015C000C4F20102904205D040F60042C4F201028A
:1015D000904203D1226921F440711143636921F0E3
:1015E0008001D4F804C0E268194301600121C2629D
:1015F000C0F828C04161002084F83E1084F83A10F9
:1016000084F83B1084F83C1084F83D1084F83910BD
:1016100010BD000080B582B00068B0F1804F1CBFE3
:1016200002B080BD43F62400C4F20200016800222B
:1016300041F0010101600068002100F0010001900B
:1016400001981C20FFF714FB1C2002B0BDE880406D
:10165000FFF7FABA80B590F83820012A4FF002025D
:1016600000F0C28080F83920D0F800C04FF67772C1
:10167000DCF8083023EA0202CCF808200B684F2B74
:1016800028DC1F2B44DD202B45D0302B43D0402BB2
:1016900040F0AC80D1F804E0C968DCF82030DCF818
:1016A000202022F00102CCF82020DCF8182022F0C3
:1016B000F00242EA011123F00A0242EA0E02CCF8DB
:1016C0001810CCF82020DCF8081041F0470121F078
:1016D000300180E06F2B27DDB3F5005F48D0B3F514
:1016E000805F7AD0702B40F08180D1E901E3C96836
:1016F000DCF8082043EA0E0322F47F4243EA01218A
:101700001143CCF80810DCF8081041F0770162E0D2
:101710000BB1102B6AD1DCF8081021F070011943CD
:1017200041F0070157E000BF502B35D0602B5DD151
:10173000D1F804E0C968DCF82030DCF8202022F081
:101740001002CCF82020DCF8182022F4704242EA83
:10175000013123F0A00242EA0E12CCF81810CCF8A6
:101760002020DCF8081041F0670121F0100132E080
:10177000D1E901E3C968DCF8082043EA0E0322F44A
:101780007F4243EA01211143CCF80810DCF808102D
:1017900041F480411FE000BFD1F804E0C968DCF8E3
:1017A0002030DCF8202022F00102CCF82020DCF8E8
:1017B000182022F0F00242EA011123F00A0242EA64
:1017C0000E02CCF81810CCF82020DCF8081041F0FC
:1017D000570121F02001CCF808100022012180F8E7
:1017E0003910002180F83810104680BD0122F5E73D
:1017F0007047000010B5016804460869800744BFBF
:10180000C8685FEA80702BD40869400744BFC86885
:101810005FEA407030D40869000744BFC8685FEAD7
:10182000007037D40869C00644BFC8685FEAC0606A
:101830003CD40869C0071CBFC8685FEAC07043D1C8
:101840000869400646BFC8685FEA406010BD6FF097
:10185000400220460A61BDE8104000F06BB800BFAE
:101860006FF002000861012020768869800733D07C
:101870002046FFF7BDFF35E06FF00400086102204D
:101880002076886910F4407F30D02046FFF7B0FF03
:1018900032E000BF6FF00800086104202076C869BC
:1018A00080072DD02046FFF7A3FF2FE06FF0100038
:1018B000086108202076C86910F4407F2AD02046AD
:1018C000FFF796FF2CE000BF6FF001000861204693
:1018D00000F02EF82168B3E7204600F025F82046F6
:1018E00000F024F82168002020768DE7204600F0E3
:1018F0001BF8204600F01AF82168002020768AE7BD
:10190000204600F011F8204600F010F82168002071
:10191000207687E7204600F007F8204600F006F81A
:1019200021680020207684E770470000704700009F
:101930007047000070470000FEE70000FEE700006F
:10194000FEE700007047000070470000FFF712B983
:101950007047000040F27400C2F20000FFF74ABF77
:10196000FEE7000092B040F20044C4F20204FFF728
:101970000FF905AD281D3021FEF7A2FC46F6004008
:10198000CFF6FE702158012666F3CC2121500220AB
:101990000590102009900027284608960E97FFF71B
:1019A000BDFA28B1EFF3108072B600BFFEE700BFAA
:1019B0000F208DE8C10068460021CDE90377FFF7CD
:1019C00093F928B1EFF3108072B600BFFEE700BFB5
:1019D000002743F61C00CDE90877C4F20200016835
:1019E000002241F00101016001684FF0800801F020
:1019F000010100910099016841F002010160006855
:101A0000802100F00200009000982046FFF7A6F821
:101A10004FF4881005AD0126CDE90607A4F58060D6
:101A200029460596FEF7C8FF20462946CDE90586DA
:101A3000CDE90777FEF7C0FF062000210022FFF75F
:101A400017F90620FFF700F940F27006C2F200060F
:101A50004FF08041304640F8041F4FF47A514FF464
:101A60007A720897CDE90677CDE90077C0E90117CA
:101A7000C0E903274761FFF75DFD28B1EFF3108050
:101A800072B600BFFEE700BF4FF48050351D0590D1
:101A900005A92846FFF7DEFD20B1EFF3108072B6EE
:101AA000FEE700BF69462846FFF706FD20B1EFF3C9
:101AB000108072B6FEE700BF40F2B405A4F56040A6
:101AC000C2F200052860281D2121FEF7F9FB00273E
:101AD00010204FF00108C5E90D072846C5F82880F9
:101AE00085F82C7085F83C70FEF7ACFD20B1EFF363
:101AF000108072B6FEE700BF40F2B400C2F20000F0
:101B000005A9CDE905880797FEF7A4FC20B1EFF3FE
:101B1000108072B6FEE700BF40F2B405C2F20005C5
:101B20002846FEF701FF28466421FEF77BFE284683
:101B3000FEF784FD308080B200097C284FF000025F
:101B400020464FF0800188BF0122FFF707F8E7E742
:101B5000000000000000000001020304060708095D
:101B6000030406080C10182030000000901B000829
:101B7000000000201000000030010008A01B000839
:101B800010000020000700004C01000800000000C9
:101B9000100000000100000068FF1F0000000000AE
:04000005080000F5FA
:00000001FF
